:100000002BC045C071C4F8C601C7ECC640C03FC094
:100010003EC03CC7A3C6DCC63AC039C038C00400E5
:1000200000010003030802010202090303040000A7
:10003000010400000A001400320064002C01F401E5
:10004000E803DC05D007B80B0A0014003200640096
:10005000C8002C01F401E80311241FBECFE5D2E053
:10006000DEBFCDBF10E0A0E6B0E0E0EDFEE002C0F4
:1000700005900D92A236B107D9F720E0A2E6B0E0D4
:1000800001C01D92A93AB207E1F789D41FC7B8CFC2
:10009000BF92CF92DF92EF92FF920F931F93CF9375
:1000A000DF93D82E7A01E901F894B6B2162F16160E
:1000B00084F4C82EC09496B394609D2998BBC70160
:1000C00013D598B39C21946098BBCE010DD51150E7
:1000D00091F78B2D846088BB002309F07894DF9121
:1000E000CF911F910F91FF90EF90DF90CF90BF9035
:1000F00008950F93CF93C82F00E024E630E042E349
:1001000050E061E081E0C4DF24E630E042E350E00B
:1001100061E082E0BDDF24E630E04AE050E061E0EB
:1001200088E0B6DF01E024E630E042E350E061E041
:1001300080E1AEDFCC23D1F080E090E0FC01E295DD
:10014000F295F07FFE27E07FFE27E81BF90BE659CA
:10015000FF4F138612861382128216821582118631
:100160001086158601968430910541F7CF910F9145
:100170000895CF92DF92EF92FF920F931F93CF9348
:10018000DF9310926A00109279001092880010920A
:10019000970080E0AEDF80E0ACDF809165008111E8
:1001A000FCCF809164008111F8CF809163008111B0
:1001B000F4CF809162008111F0CF88EC90E094D46C
:1001C00010E001E0C12FD0E0FE01E295F295F07F52
:1001D000FE27E07FFE27EC1BFD0BE659FF4F008357
:1001E00080916500882309F40EC1FE01E295F29525
:1001F000F07FFE27E07FFE27EC1BFD0BE659FF4F4B
:100200001082D484CE01880F991F880F991F8C0FFC
:100210009D1F0F2EF7E1EF2EF0E0FF2EF02DE80EE0
:10022000F91EC7013DD6D81611F1CE0182959295DF
:10023000907F9827807F98278C1B9D0B0F2EFAE6C6
:10024000CF2EF0E0DF2EF02DC80ED91EF60164850A
:10025000C7012ED6F60164856095CE01880F991FDF
:10026000880F991F8C0F9D1F8D5F9F4F21D6FE0118
:10027000E295F295F07FFE27E07FFE27EC1BFD0B59
:10028000E659FF4FD180CE01880F991F880F991F23
:100290008C0F9D1F0F2EF4E1EF2EF0E0FF2EF02DBE
:1002A000E80EF91EC701FCD5D81611F1CE018295D2
:1002B0009295907F9827807F98278C1B9D0B0F2EFF
:1002C000FAE6CF2EF0E0DF2EF02DC80ED91EF60193
:1002D0006181C701EDD5F60161816095CE01880F7E
:1002E000991F880F991F8C0F9D1F80509040E0D55B
:1002F000FE01E295F295F07FFE27E07FFE27EC1BE2
:10030000FD0BE659FF4FD480CE01880F991F880F4F
:10031000991F8C0F9D1F0F2EF5E1EF2EF0E0FF2EA1
:10032000F02DE80EF91EC701BBD5D81611F1CE018C
:1003300082959295907F9827807F98278C1B9D0BA4
:100340000F2EFAE6CF2EF0E0DF2EF02DC80ED91ECC
:10035000F6016481C701ACD5F60164816095CE01D8
:10036000880F991F880F991F8C0F9D1F8F5F9F4FBC
:100370009FD5FE01E295F295F07FFE27E07FFE27F4
:10038000EC1BFD0BE659FF4FD780CE01880F991F5C
:10039000880F991F8C0F9D1F0F2EF6E1EF2EF0E0B6
:1003A000FF2EF02DE80EF91EC7017AD5D81611F1EF
:1003B000CE0182959295907F9827807F98278C1BFD
:1003C0009D0B0F2EFAE6CF2EF0E0DF2EF02DC80E9B
:1003D000D91EF6016781C7016BD5F601678160956B
:1003E000CE01880F991F880F991F8C0F9D1F8E5F5C
:1003F0009F4F5ED51F5F809165008111FCCF88EC17
:1004000090E072D397C080916400882309F447C0BC
:100410008091620081111EC0FE01E295F295F07F8D
:10042000FE27E07FFE27EC1BFD0BE659FF4F818185
:100430008F5F81838181883050F1FE01E295F295D2
:10044000F07FFE27E07FFE27EC1BFD0BE659FF4FF8
:1004500011821DC0FE01E295F295F07FFE27E07F3C
:10046000FE27EC1BFD0BE659FF4F84858F5F8487C9
:100470008485863060F0FE01E295F295F07FFE27DC
:10048000E07FFE27EC1BFD0BE659FF4F04878091B0
:1004900064008111FCCF88EC90E026D34BC08091A2
:1004A0006300882309F446C08091620081111EC058
:1004B000FE01E295F295F07FFE27E07FFE27EC1B20
:1004C000FD0BE659FF4F87818F5F878387818B30D4
:1004D00050F1FE01E295F295F07FFE27E07FFE27C6
:1004E000EC1BFD0BE659FF4F17821DC0FE01E29584
:1004F000F295F07FFE27E07FFE27EC1BFD0BE6590F
:10050000FF4F84818F5F848384818B3060F0FE0194
:10051000E295F295F07FFE27E07FFE27EC1BFD0BB6
:10052000E659FF4F1482809163008111FCCF88EC63
:1005300090E0DAD2143008F445CE80E0DADD80E0D5
:10054000D8DDDF91CF911F910F91FF90EF90DF9059
:10055000CF9008957F928F929F92AF92BF92CF9249
:10056000DF92EF92FF920F931F93CF93DF9300E000
:1005700010E0C12CDD24D394E8015801AA0CBB1C67
:10058000AA0CBB1CA00EB11E83E0A80EB11C0F2E3E
:10059000F4E18F2EF0E09F2EF02D8A0C9B1CC401FD
:1005A0007FD4F82EA0E0B0E0AA0EBB1EC50178D41F
:1005B000282F30E02F0D311D2F3F310519F4B5E004
:1005C000BF1568F5FE01EE0FFF1FEE0FFF1FEC0FCA
:1005D000FD1FEF5DFF4FE4917E01EE0CFF1CEE0C62
:1005E000FF1CEE0CFF1CEE0CFF1CC7018C1B9D0BAF
:1005F0000F2EFAE6EF2EF0E0FF2EF02DE80EF91E9A
:10060000D7011C96EC931C971C966C91C40150D496
:10061000F70164856095C5014BD4CD2C0CC0F80161
:10062000E295F295F07FFE27E07FFE27E01BF10BBD
:10063000E659FF4FF4865E01AA0CBB1CAA0CBB1C3A
:10064000AC0EBD1E0F2EF4E18F2EF0E09F2EF02D8C
:100650008A0C9B1CC40124D4F82E80E090E0A80EE4
:10066000B91EC5011DD4282F30E02F0D311D2F3F9D
:10067000310519F498E09F1568F5FE01EE0FFF1F94
:10068000EE0FFF1FEC0FFD1FE25EFF4FE4917E01B6
:10069000EE0CFF1CEE0CFF1CEE0CFF1CEE0CFF1C06
:1006A000C7018C1B9D0B0F2EFAE6EF2EF0E0FF2EFC
:1006B000F02DE80EF91ED7011196EC9311971196C3
:1006C0006C91C401F5D3F70161816095C501F0D348
:1006D000CD2C0CC0FE01E295F295F07FFE27E07F65
:1006E000FE27EC1BFD0BE659FF4FF1827E01EE0C5D
:1006F000FF1CEE0CFF1CEC0EFD1EFFEFEF1AFF0AB5
:100700000F2EF4E1AF2EF0E0BF2EF02DAE0CBF1C8B
:10071000C501C6D3782E0F2EF0E08F2EF0E09F2E6D
:10072000F02D8E0C9F1CC401BBD3282F30E0270D69
:10073000311D2F3F310519F48BE0871568F5FE0157
:10074000EE0FFF1FEE0FFF1FEC0FFD1FE15EFF4FCF
:10075000E4917E01EE0CFF1CEE0CFF1CEE0CFF1C66
:10076000EE0CFF1CC7018C1B9D0B0F2EFAE6EF2E23
:10077000F0E0FF2EF02DE80EF91ED7011496EC9351
:10078000149714966C91C50193D3F7016481609519
:10079000C4018ED3CD2C0CC0FE01E295F295F07F02
:1007A000FE27E07FFE27EC1BFD0BE659FF4F74820E
:1007B0007E01EE0CFF1CEE0CFF1CEC0EFD1EF2E0A9
:1007C000EF0EF11C0F2EF4E1AF2EF0E0BF2EF02D56
:1007D000AE0CBF1CC50164D3782E0F2EF0E08F2E17
:1007E000F0E09F2EF02D8E0C9F1CC40159D3282FB2
:1007F00030E0270D311D2F3F310519F48BE08715AF
:1008000068F5FE01EE0FFF1FEE0FFF1FEC0FFD1F3F
:10081000E05EFF4FE4917E01EE0CFF1CEE0CFF1C2E
:10082000EE0CFF1CEE0CFF1CC7018C1B9D0B0F2E4A
:10083000FAE6EF2EF0E0FF2EF02DE80EF91ED701BC
:100840001796EC93179717966C91C50131D3F70162
:1008500067816095C4012CD3CD2C0CC0FE01E295BC
:10086000F295F07FFE27E07FFE27EC1BFD0BE6599B
:10087000FF4F7782DE01A295B295B07FBA27A07FA5
:10088000BA27AC1BBD0BA659BF4F1C92FE01EE0F41
:10089000FF1FEE0FFF1FCE0FDF1FFE01EE5DFF4FAC
:1008A000E4911E96EC930F5F1F4F0430110509F081
:1008B00063CECC2059F001E024E630E042E350E082
:1008C00065E080E1E5DB8CE291E00ED1DF91CF9134
:1008D0001F910F91FF90EF90DF90CF90BF90AF905E
:1008E0009F908F907F9008951F920F920FB60F9256
:1008F00011248F931092A8001092A700B29B04C0FD
:100900001FBC1092600045C08FB580936600809137
:1009100066008233F0F1809166008B38D0F58091CB
:100920006000811136C01092A600809166008F335E
:1009300050F481E0809365008093640080936300AD
:100940008093620026C0809166008F3748F0109235
:10095000650010926400109263001092620019C04A
:10096000809166008F53809366008091660080724C
:10097000809365008091660080718093640080910F
:100980006600887080936300809166008470809315
:1009900062008F910F900FBE0F901F90189596D008
:1009A000D9DD81E0A6DB712C20E030E050E0992415
:1009B0009394812CCAE6D0E00F2EF9E7CF2EF0E019
:1009C000DF2EF02D0F2EF8E8EF2EF0E0FF2EF02DA9
:1009D00007E910E0A12CB12C4091A600909169008C
:1009E000892D9111882D882361F1892D413009F0DD
:1009F000882D882331F180916500811103C0909288
:100A000065001DC080916400811103C09092640054
:100A100016C080916300811103C0909263000FC0E3
:100A200080916200811103C09092620008C08092A0
:100A300065008092640080926300809262009092D0
:100A4000690080916500888380916400F60180834D
:100A500080916300F701808380916200F8018083B8
:100A600080916700909168008031974208F0B4CF80
:100A70006880561107C02F3F4FEF340789F02F5F72
:100A80003F4F0EC0243F314038F4739498E09715DF
:100A900030F46FDB950104C0782C950101C09501FD
:100AA000EFECF7E03197F1F700C00000562D94CF3E
:100AB00084E088BB8BE187BB089585B78C7F82601B
:100AC00085BF80E28BBF84E085BB0895F1DF17D03E
:100AD000F4DF1092A8001092A70081E080936900D3
:100AE0001092A60078940895009741F0EFECF7E09B
:100AF0003197F1F700C000000197C1F7089582E037
:100B00008ABD83E083BF8DE789BD89B7857E80611B
:100B100089BF88E080BF1CBC89B78B79846089BF9E
:100B2000089590E0FC01E295F295F07FFE27E07FCA
:100B3000FE27E81BF90BE659FF4F2081222309F419
:100B4000E9C0FC01E295F295F07FFE27E07FFE27E9
:100B5000E81BF90BE659FF4F228533852F5F3F4F86
:100B60003387228742815381E181F0E0EE0FFF1F3E
:100B7000E85BFF4F259134914217530700F546B3C8
:100B8000FC01E295F295F07FFE27E07FFE27E81B4F
:100B9000F90BE659FF4F868521E030E0B90102C02C
:100BA000660F771F8A95E2F7CB01942F9460892B0B
:100BB00088BB828193810196938382830895FC018F
:100BC000E295F295F07FFE27E07FFE27E81BF90B08
:100BD000E659FF4F4585248550E030E0215031092A
:100BE000421753070CF04BC0FC01E295F295F07FE1
:100BF000FE27E07FFE27E81BF90BE659FF4F4581F2
:100C00005681E481F0E0EE0FFF1FEE5CFF4F25916F
:100C100034914217530700F548B3FC01E295F29571
:100C2000F07FFE27E07FFE27E81BF90BE659FF4F18
:100C3000868521E030E0B90102C0660F771F8A95F2
:100C4000E2F7CB0180958423846088BB85819681FF
:100C50000196968385830895FC01E295F295F07FD5
:100C6000FE27E07FFE27E81BF90BE659FF4F1382B2
:100C700012821682158285858F5F85870895FC0113
:100C8000E295F295F07FFE27E07FFE27E81BF90B47
:100C9000E659FF4F40855185E781F0E0EE0FFF1FD9
:100CA000EE5CFF4F259134914217530700F548B38E
:100CB000FC01E295F295F07FFE27E07FFE27E81B1E
:100CC000F90BE659FF4F868521E030E0B90102C0FB
:100CD000660F771F8A95E2F7CB01809584238460A5
:100CE00088BB808591850196918780870895FC0156
:100CF000E295F295F07FFE27E07FFE27E81BF90BD7
:100D0000E659FF4F138212821682158211861086D1
:100D10001586089548B3FC01E295F295F07FFE2711
:100D2000E07FFE27E81BF90BE659FF4F868521E09F
:100D300030E0B90102C0660F771F8A95E2F7CB0158
:100D400080958423846088BB138612861382128266
:100D50001682158211861086158608951F920F92AD
:100D60000FB60F9211242F933F934F935F936F937E
:100D70007F938F939F93AF93BF93EF93FF93789459
:100D80008091670090916800019649F0809167001A
:100D9000909168000196909368008093670080E0CE
:100DA000C0DE81E0BEDE82E0BCDE83E0BADEFF9121
:100DB000EF91BF91AF919F918F917F916F915F91D3
:100DC0004F913F912F910F900FBE0F901F9018954C
:100DD0001F920F920FB60F9211240F900FBE0F901B
:100DE0001F9018951F920F920FB60F9211240F901B
:100DF0000FBE0F901F9018951F920F920FB60F9273
:100E000011240F900FBE0F901F9018951F920F92F4
:100E10000FB60F9211248F9381E080936000B29BF4
:100E200017C08091A8008F3F29F08091A8008F5FA4
:100E30008093A8001092A70080916900882301F197
:100E40008091A8008831E1F482E08093A60018C068
:100E50008091A7008F3F29F08091A7008F5F80933A
:100E6000A7001092A80080916900882349F0809122
:100E7000A700883129F481E08093A60010926900D0
:100E80008F910F900FBE0F901F9018951F920F9289
:100E90000FB60F9211240F900FBE0F901F90189550
:100EA000E199FECF9FBB8EBBE09A99278DB3089541
:100EB000262FE199FECF1CBA9FBB8EBB2DBB0FB670
:100EC000F894E29AE19A0FBE01960895F894FFCF44
:020ED00001001F
:00000001FF
